:020000040800F2
:1000000008080020C9000008D1000008D30000083B
:1000100000000000000000000000000000000000E0
:10002000000000000000000000000000D5000008F3
:100030000000000000000000D7000008D900000800
:10004000DB00000800000000DB000008DB00000807
:10005000DB000008DB000008DB000008DB00000814
:1000600000000000DB000008DB000008DB000008E7
:10007000DB000008DB000008DB00000800000000D7
:10008000DB0000080000000000000000DB000008AA
:10009000DB000008DB000008DB000008DB000008D4
:1000A000DB000008DB000008DB000008DB000008C4
:1000B000DB0000080348854600F014F800480047BC
:1000C0005D020008080800200448804704480047F3
:1000D000FEE7FEE7FEE7FEE7FEE7FEE74501000874
:1000E000B5000008064C0125064E05E0E36807CC84
:1000F0002B430C3C98471034B442F7D3FFF7DEFF94
:10010000B8040008D804000830B5002000F02EF92B
:1001100004460A48844200D10024002309E0580024
:10012000851C284600F022F95900054A5052581CF7
:1001300083B2A342F3DB204630BD0000FFFF000086
:10014000040000201948006801210843174908608D
:100150000846406816490840144948600846006847
:1001600014490840114908600846006801218904C3
:1001700088430E490860084640683F2109048843C7
:100180000A4948600846C06A00090001C86208467A
:10019000006BFF2114318843044908630846406B13
:1001A000400840004863002088607047001002400B
:1001B0000CB8FF08FFFFF6FE02E008C8121F08C1D6
:1001C000002AFAD170477047002001E001C1121FD8
:1001D000002AFBD1704701B500BF0098411E009175
:1001E0000028FAD108BD000010B5024600201A4BC5
:1001F0001B6902242343184C236123465A611B695F
:1002000040242343144C236100E0491E124BDB6859
:10021000DB07DB0F002B01D00029F6D10E4BDB688A
:10022000DB07DB0F002B02D0002900D101200A4B95
:10023000DB6820242340002B05D0074BDB682343D9
:10024000054CE36000E00120034B1B690224A3433B
:10025000014C236110BD0000002002403E4840696F
:100260000121490408433C4948610920C00600684F
:100270000321890288430921C906086008460068ED
:100280000121890208430921C9060860084640681F
:10029000202188430921C90648602F48406901216F
:1002A000C90408432C4948612C4800680321890689
:1002B00088432A4908600024FFF726FF2849088060
:1002C0002848058847E0254800690121490308407E
:1002D000002819D1032E14DD601CC4B20026002DA5
:1002E00001D1012500E000256100081D214600F034
:1002F0004BF8FF2C00DB00242946022000F044F8D4
:1003000003E0701C86B200E00026012D0FD1092009
:10031000C0068069202108430921C9068861084672
:100320008069202188430921C906886110E00920DD
:10033000C00680690121490508430921C906886171
:10034000084680690121490588430921C906886159
:100350000548FFF740FFB6E70010024000080048DC
:100360000000002004000020A0860100014604488F
:10037000CA07D20F002A02D1024A8918088870479A
:10038000FFFF000000FC0008F8B505460E46022DF0
:100390007ED3E807C00F00287AD100BF4048C0686C
:1003A000C007C00F0028F9D104E03E483C4948602E
:1003B0003D4848603A480069802108400028F4D14F
:1003C000374800690840002869D10B2109043748E3
:1003D000FFF70AFF00900098002860D130480069BC
:1003E000012108432E4908613148008840002F4907
:1003F0004018871C08462D18AF420CD83F208002B9
:10040000281A801EC003040C60002A490E52601C8A
:100410002749088008E03F208002281A801EC00378
:10042000040C600023490E52214800881F490880AF
:1004300000BF1B48C068C007C00F0028F9D10024C6
:1004400010E0600019494018871C60001949085ADB
:10045000388000BF1248C068C007C00F0028F9D11B
:10046000601C84B2124800888442EADB0C48C068F1
:1004700020210840002804D00948C06808430849E2
:10048000C86007480069400840000549086100E06D
:1004900005E0084600698021084301490861F8BD6C
:1004A0000020024023016745AB89EFCD00FC000826
:1004B0000000002004000020D804000800000020F4
:1004C00004000000B8010008DC040008040000205B
:0C04D00004080000C80100080000000043
:04000005080000B53A
:00000001FF
