:020000040800F2
:1000000000040020C9000008D1000008D300000847
:1000100000000000000000000000000000000000E0
:10002000000000000000000000000000D5000008F3
:100030000000000000000000D7000008D900000800
:10004000DB00000800000000DB000008DB00000807
:10005000DB000008DB000008DB000008DB00000814
:1000600000000000DB000008DB000008DB000008E7
:10007000DB000008DB000008DB00000800000000D7
:10008000DB0000080000000000000000DB000008AA
:10009000DB000008DB000008DB000008DB000008D4
:1000A000DB000008DB000008DB000008DB000008C4
:1000B000DB0000080348854600F014F800480047BC
:1000C000D902000800040020044880470448004783
:1000D000FEE7FEE7FEE7FEE7FEE7FEE73502000883
:1000E000B5000008064C0125064E05E0E36807CC84
:1000F0002B430C3C98471034B442F7D3FFF7DEFF94
:10010000340400084404000830B5044604250B20DC
:10011000000400F07BF80546042D17D10C48006957
:10012000022108430A4908610846446100694021E8
:100130000843074908610B20000400F067F80546F2
:10014000034800690221884301490861284630BDFF
:100150000020024004200D49C968C907C90F0029C1
:1001600001D0012010E00949C9681022114000297E
:1001700001D0022008E00549C96804221140002985
:1001800001D0032000E0042070470000002002405E
:100190000348006980210843014908617047000055
:1001A0000020024070B504460D4604260B200004D2
:1001B00000F02CF80646042E11D10A4800690121EE
:1001C00008430849086125800B20000400F01EF850
:1001D000064604480069400840000249086130466C
:1001E00070BD0000002002400548006980210840E1
:1001F000002804D00348024948600348486070471B
:100200000020024023016745AB89EFCD10B50346BE
:100210000424FFF79FFF044603E0FFF79BFF04461B
:100220005B1E012C01D1002BF7D1002B00D105243E
:10023000204610BD1948006801210843174908608D
:100240000846406816490840144948600846006856
:1002500014490840114908600846006801218904D2
:1002600088430E490860084640683F2109048843D6
:100270000A4948600846C06A00090001C862084689
:10028000006BFF2114318843044908630846406B22
:10029000400840004863002088607047001002401A
:1002A0000CB8FF08FFFFF6FE02E008C8121F08C1E5
:1002B000002AFAD170477047002001E001C1121FE7
:1002C000002AFBD1704701B500BF0098411E009184
:1002D0000028FAD108BD00003848406901214904CE
:1002E0000843364948610920C00600680321890295
:1002F00088430921C906086008460068012189026F
:1003000008430921C906086008464068202188433F
:100310000921C9064860294840690121C9040843E8
:1003200026494861264800680321890688432449F4
:100330000860002000F048F804463DE020480069CD
:1003400001214903084000280FD1032D0ADD0025B3
:10035000002C01D1012400E000242146002000F0FF
:100360003BF803E0681C85B200E00025012C0FD1AA
:100370000920C0068069202108430921C906886137
:1003800008468069202188430921C906886110E058
:100390000920C00680690121490508430921C906D1
:1003A0008861084680690121490588430921C906F9
:1003B00088610448FFF787FFC0E700000010024093
:1003C00000080048A08601000146024A89180888F2
:1003D0007047000000FC000870B505460E46042476
:1003E0000B200004FFF712FF0446042C1AD101E091
:1003F000FFF7FAFE0D480069802108400028F7D178
:100400000A480069084000280CD10948FFF77CFE23
:100410000446042C06D106482D1831462846FFF71D
:10042000C1FE0446FFF7B4FE204670BD0020024026
:1004300000FC000844040008000000200004000044
:04044000B8020008F6
:04000005080000B53A
:00000001FF
