:020000040800F2
:100000004013002039010008B7020008B3020008BD
:1000100000000000000000000000000000000000E0
:10002000000000000000000000000000E1020008E5
:100030000000000000000000B9020008B903000839
:100040004B010008000000004B0100084B010008B4
:100050004B0100084B0100084B0100084B01000850
:10006000000000004B0100084B0100084B01000894
:100070004B0100084B0100084B0100080000000084
:100080004B01000800000000000000004B010008C8
:100090004B0100084B0100084B0100084B01000810
:1000A0004B0100084B0100084B0100083D0400080B
:1000B0003F0400080348854600F070F800480047F8
:1000C0007D04000840130020064B196808682030A2
:1000D00080F30988022080F314883FBCAE4662B6E4
:1000E00000BD000028000020EFF3108072B67047BA
:1000F00080F310887047EFF309800E4B1A682038A0
:100100001060F0C044464D4656465F46F0C008B504
:1001100072B600F0CFFF62B60CBC116808681030F0
:10012000F0C8A046A946B246BB4680F309882038ED
:10013000F0C81847280000200448804704480047BA
:10014000FEE7FEE7FEE7FEE7FEE7FEE7C103000885
:10015000B500000803460B439B0703D009E008C91C
:10016000121F08C0042AFAD203E00B780370401C67
:10017000491C521EF9D27047D2B201E00270401CF5
:10018000491EFBD270470022F6E710B513460A4617
:1001900004461946FFF7F0FF204610BD064C012526
:1001A000064E05E0E36807CC2B430C3C984710341F
:1001B000B442F7D3FFF782FFB01B0008D01B000842
:1001C00011E020210920C00600F071F8FF20F53071
:1001D00000F06AFE00210920C00600F068F87D20CA
:1001E000C00000F061FEECE71CB50121480400F0FE
:1001F00067F820200090012168460171002181717B
:100200000121C1710021417169460920C00600F039
:1002100006F800210920C00600F049F81CBDF0B521
:100220000A4600210023002400BF3DE001258D4047
:100230002B4615681D402C469C4234D11579012D62
:1002400002D01579022D16D185684F000326BE40D5
:10025000B543856055794E00B54086683543856065
:10026000858801268E40B5438580858896798E40A5
:10027000B6B23543858005684F000326BE40B543BE
:10028000056015794E00B540066835430560C568C0
:100290004F000326BE40B543C560D5794E00B5403A
:1002A000C6683543C560491C1029BFD3F0BD8182A3
:1002B000704700BFFEE7704710B5FFF71CFF10BD89
:1002C000002905D0054A52690243044B5A6104E0F3
:1002D000024A52698243014B5A6170470010024042
:1002E00010B500F09FFD10BD0CB5002001900090EE
:1002F0002F480068012108432D49086000BF2C48A1
:1003000000680221084000900198401C019000986C
:10031000002804D10521090301988842EFD124481F
:10032000006802210840002802D00120009001E06E
:10033000002000900098012839D111201D49086043
:100340001B4840681A4948600846406848600846AB
:1003500040687F21C90388431549486008464068C2
:100360005121C90308431249486008460068012129
:10037000090608430E49086000BF0D4800680121C6
:10038000490608400028F8D00948406880088000E5
:10039000074948600846406802210843044948600C
:1003A00000BF034840680C2108400828F9D10CBD63
:1003B000001002400020024010B500F0DDFE10BD2C
:1003C00010B51B4800680121084319490860084618
:1003D00040681849084016494860084600681649B0
:1003E00008401349086008460068012189048843D1
:1003F0000F490860084640683F21090488430C49BA
:1004000048600846C06A00090001C8620846006BDF
:10041000FF2154318843064908630846406B400871
:100420004000486300208860FFF75EFF10BD0000B9
:10043000001002400CB8FF08FFFFF6FE704770473F
:1004400030B47446641E2578641CAB4204D3635DEB
:100450005B00E31830BC18471D46F8E702E008C807
:10046000121F08C1002AFAD170477047002001E02E
:1004700001C1121F002AFBD1704700001FB5FFF712
:10048000B3FE0020022301900290009303900346E4
:10049000642204A1064801F0E7F800F0D5FD00BF92
:1004A000FEE70000446973706C6179310000000060
:1004B000C101000810B504460E48006844600E48AB
:1004C0000068844207D20B480168091D0B48006888
:1004D00000F03CFC0CE007480168091D0848006872
:1004E00000F034FC07480068844201D205480460EB
:1004F00010BD0000280000203C000020300000203B
:100500002C0000205800002070B505460E465420EF
:1005100000F07CFB0446002C14D0002E03D1A80070
:1005200000F074FB00E030462063206B002804D10B
:10053000204600F055FC002404E0A900A522206B11
:10054000FFF71AFE204670BD10B500F027FC1548D5
:100550000068002822D1144800F0E8FB134800F09E
:10056000E5FB114812490860104812490860002252
:100570000C21052000F012FE0A49086008460068B8
:10058000002802D172B600BFFEE7064800680028C6
:1005900004D009A10348006800F052FC00F00CFCF4
:1005A00010BD000020000020AC0D0020C00D002078
:1005B000180000201C000020546D72510000000043
:1005C00070B525E000F06EFD14480068002801D1E8
:1005D000012000E00020054601F01AFA002D17D195
:1005E00000F0DCFB0D48C068C468201D00F08AFBE9
:1005F0000B480068401E0A4908600A480068401E0F
:100600000849086000F0D8FB204600F065F800BFFC
:10061000044800680028D5D170BD0000D80E002025
:10062000380000203400002070B504460D46206CD0
:1006300000280ED0216CE0684018E0606168E06836
:10064000884201D32068E0602846226CE168FFF709
:1006500081FD70BDF8B504460E4615460027206C96
:10066000002809D12068002831D1606801F056F9CE
:100670000746002060602AE0002D0FD13146226C31
:10068000A068FFF767FD216CA0684018A060616852
:10069000A06888421BD32068A06018E03146226C15
:1006A000E068FFF757FD216CE068401AE0602168C0
:1006B000E068884203D2216C6068401AE060022D35
:1006C00005D1A06B002802D0A06B401EA063A06BD8
:1006D000401CA0633846F8BD10B50446206B00F0FE
:1006E0007FFB204600F07CFB10BD00000146094A5C
:1006F00012681268002A01D1012200E000220A607B
:100700000A68002A04D1034A1268D268106800E01F
:1007100000207047180000200A4AD008C0000A4A8A
:1007200010600022084B5A6035229201074B5A6034
:1007300000221A600146352292014A601A460A6078
:10074000704700006C00002000000020080000201E
:1007500000BFFFF735FF034800680128F9D900F012
:1007600063FBF6E7D40D0020F8B504460F461546A6
:10077000002608E0B95D204634308155B85D002878
:1007800000D102E0761C102EF4D300BF00214320DC
:1007900001550A2D00D30925E562E5640020206596
:1007A000201D00F0D0FA2046183000F0CCFA246169
:1007B0000A20401BA0616462F8BD000010B500244F
:1007C00006E0142161430E4A881800F0AFFA641C59
:1007D0000A2CF6D30B4800F0A9FA0B4800F0A6FA51
:1007E0000A4800F0A3FA0A4800F0A0FA094800F00D
:1007F0009DFA04480849086003480849086010BD8C
:10080000D40D00209C0E0020B00E0020C40E00204D
:10081000D80E0020EC0E00202C000020300000201C
:10082000F8B504460D4616461F4600200090656048
:100830002461B5420CD8F01BA169884202D3012083
:10084000009011E0211D0948006800F07FFA0BE0DC
:10085000BE4204D2BD4202D30120009004E0211D1B
:100860000348006800F072FA0098F8BD1C000020F0
:100870001800002070B5054600F090FAA86B00281B
:1008800001D1012400E0002400F096FA204670BD5A
:1008900070B5054600F082FAA86BE96B884201D179
:1008A000012400E0002400F087FA204670BD00001B
:1008B000F8B505460F4613480068C068C468201D97
:1008C00000F020FAE069012817D1A06941192B46F0
:1008D0003A462046FFF7A4FF01280ED10020034628
:1008E0002A4601460090204601F02EF90646002EC9
:1008F00002D172B600BFFEE700BF2046616A88479A
:10090000F8BD00001800002070B586B060E00398C4
:1009100000285DDB059C6069002801D1012000E012
:100920000020002802D1201D00F0ECF902A800F000
:10093000A1F8054603980300FFF782FD0A0A06089E
:100940002C2E4407092D2F4800BF00BF00BF00BF59
:100950000498A269811803462A462046FFF760FFE3
:10096000012816D12046616A8847E069012810D124
:10097000002000900498A1694218002319462046DF
:1009800001F0E2F80646002E02D172B600BFFEE783
:1009900000BF1CE000BF1AE000BF0498A061A0697E
:1009A000002801D0012000E00020002802D172B60A
:1009B00000BFFEE7A06941192B462A462046FFF7F3
:1009C0002FFF04E0204600F00BFA00E000BF00BF5C
:1009D00000231A4603A90448006800F00DFC002813
:1009E00095D106B070BD000020000020F8B5044687
:1009F0000E4600F057FB684600F03CF805460098AC
:100A0000002816D1002E08D1AC4206D801F000F81B
:100A100029462046FFF74CFF0DE0611B06480068A1
:100A200000F024FA00F0F4FF002804D100F0FCF9F3
:100A300001E000F0EDFFF8BD200000200B4909683F
:100A40000968002901D1012100E00021002904D01A
:100A50000021C943064A116006E004490968C968D3
:100A6000C868034A41681160704700002C000020EC
:100A70005800002070B5044600F0A4FE0546074863
:100A80000068854204D200F015F80120206001E0E2
:100A90000020206001480560284670BD2400002029
:100AA0000248034948610720086170477FBB000086
:100AB00000E000E0FEB52BE020480068C068056853
:100AC0001E480068C068C468201D00F01BF920465D
:100AD000616A8847E06901281AD1A0694619AE42C7
:100AE00007D966602461211D1448006800F02EF9C2
:100AF0000EE0002003462A4601460090204601F001
:100B000023F80746002F02D172B600BFFEE700BFF0
:100B10000A4800680068002801D1012000E0002098
:100B20000028C9D0054800680190054800680349BD
:100B30000860034901980860FEBD0000180000200D
:100B40001C00002007480068401C002801D101203B
:100B500000E00020002802D172B600BFFEE772B6A6
:100B600000BFFEE76000002008B500BF6846FFF741
:100B7000BDFD044620460099FFF738FFFFF7C4FE8D
:100B8000F4E710B5044600F009F914E0606A0028A3
:100B900001D1012000E00020002808D120462430A7
:100BA00000F0F2FE002803D000F0AAF900E005E012
:100BB000A06C401EA064A06C0028E7DC00BF0020F1
:100BC000C043A06400F0F8F800F0E8F814E02069F1
:100BD000002801D1012000E0002000280BD1204690
:100BE000103000F0D1FE002801D000F089F9606CCF
:100BF000401E606400E002E0606C0028E7DC00BF9B
:100C00000020C043606400F0D7F810BDF8B504467A
:100C10000020009000F046FA26480068002804D121
:100C2000FFF77AFD012023490860002C09D0083421
:100C30006007400F002804D06007400F0821081A01
:100C40000419002C32D03520800184422ED21A4F54
:100C50003846056801E02F462D686868A04202D238
:100C600028680028F7D1154885421FD03868083019
:100C70000090286838606868001B102810D92E1969
:100C80006868001B70606C6071680B4800E0006869
:100C9000026852688A42FAD302683260066000BF76
:100CA000074968680968081A0549086000F0B0FE3D
:100CB0000098F8BD1400002000000020080000206B
:100CC0001000002006480068002806D00449096882
:100CD00008465030096D491C0160014800687047A2
:100CE00028000020001F01231B060360001F016075
:100CF000001F034B03601438026020387047000067
:100D0000450B000801460A694B68886898608B6843
:100D1000486858605068884201D188685060002057
:100D200008611068401E1060106870470146083165
:100D300041600021C943816001460831C160016101
:100D400000210160704700210161704710B5024623
:100D50000B685C1C002C01D1106907E010460830BC
:100D600000E04068446824689C42FAD944684C60BA
:100D70004C68A160886041600A611468641C14605A
:100D800010BD42684A6093688B60936859609160B7
:100D9000086103685B1C03607047000072B6054879
:100DA0000068401C03490860BFF34F8FBFF36F8F8B
:100DB000704700006000002008480068002802D149
:100DC00072B600BFFEE705480068401E0349086090
:100DD00008460068002800D162B670476000002015
:100DE00070B506463546002E16D0083D2C4600F05C
:100DF00059F96168094800E00068026852688A424F
:100E0000FAD30268226004600549606809684018E6
:100E10000349086000F0FCFD70BD000000000020E8
:100E200010000020704700000120000703494860BF
:100E3000BFF34F8FBFF36F8F7047000000ED00E0EE
:100E400010B5024600200BE0C300074CE358002B0E
:100E500005D1C300E150C3001B195A6002E0401CD9
:100E60000828F1D300BF10BD000F002070B5054663
:100E70000E462C46FFF792FF606C401C002800D104
:100E80006064A06C401C002800D1A064FFF794FFB0
:100E9000A06B002804D131462046243000F060F8D1
:100EA0002046FFF76EFE70BD70B504460026002C8C
:100EB0001BD010480068002801D1012000E000206C
:100EC000002802D172B600BFFEE700F0EBF80A4836
:100ED0000068051909480068001DFFF713FF284640
:100EE000FFF7E8FA00F094FD0646002E01D1FFF767
:100EF0009BFF70BD5C0000203C000020280000200B
:100F000001200149086070474C00002070B505467B
:100F10000C46002D02D172B600BFFEE70D480168F5
:100F200018312846FFF712FF0A480068001DFFF736
:100F3000E9FE601C002806D106480168091D064824
:100F4000FFF71FFF05E00548006806193046FFF768
:100F5000B1FA70BD28000020EC0E00203C000020FB
:100F600070B504460D46002C02D172B600BFFEE7F4
:100F70000848016818312046FFF703FF054800685C
:100F8000001DFFF7BFFE0448006846193046FFF712
:100F900091FA70BD280000203C00002070B5054685
:100FA0002C46002D39D01D49E06A0968C96A88427B
:100FB00033D2A069C00FC007002805D117480068C8
:100FC000C06A0A21081AA0611422E06A5043144A38
:100FD00080186169814201D1012000E000200028D1
:100FE00017D0201DFFF78EFE0C480068C06AE06233
:100FF0000C49E06A0968884202D90A49E06A086037
:101000001422E16A5143064A8818211DFFF7B9FEF0
:1010100003E002480068C06AE06270BD280000205A
:10102000D40D002040000020002802D172B600BF7D
:10103000FEE7034909680160024909684160704799
:10104000500000203C0000201FB5002000900190BF
:10105000029003463C220EA103900F4800F004FBCF
:101060000446012C02D100F049FD0446012C09D1AF
:1010700072B601200949086000200949086000F0A3
:101080005FF804E0002C02D172B600BFFEE71FBD7E
:1010900049444C450000000051070008440000206E
:1010A0003C00002002480068401C0149086070476D
:1010B0005C0000201D480068002803D001201C4966
:1010C000086032E000201A4908600BE01948006807
:1010D000002802D172B600BFFEE716480068401E25
:1010E00014490860134800681421484312490858FD
:1010F000002801D1012000E000200028E6D10D49A0
:101100000968142251430C4A8818416849684160B3
:101110000146083142688A4202D14168496841600B
:101120004168C968054A116000BF70475C00002033
:101130004C00002040000020D40D0020280000209A
:1011400010B50B48006AFF210904084308490862EA
:101150000846006AFF210906084305490862FFF7AF
:101160009FFC002003490860FEF7AEFF002010BD81
:1011700000ED00E06000002010B5FEF7B5FF04466A
:1011800000F02CFB002803D0012000070249486032
:101190002046FEF7ADFF10BD00ED00E0FEB50546B0
:1011A0000E46174600200090002D1DD05420FFF75A
:1011B0002DFD0446002C17D028467043401C01909A
:1011C0000198FFF723FD20602068002809D0E5631F
:1011D00026640121204600F0C7F8502007550094EE
:1011E00002E02046FFF7FCFD0098002802D172B60D
:1011F00000BFFEE70098FEBDFFB583B005460E4672
:10120000002002902C46002C02D172B600BFFEE7EF
:10121000002E02D1206C002801D1012000E0002026
:10122000002802D172B600BFFEE700F0B9FA00282C
:1012300002D10598002801D1012000E000200028FB
:1012400002D172B600BFFEE700BFFFF7A7FDA06B9B
:10125000002837D0E76831462046FFF7E5F90698C1
:10126000002819D1A06B401EA0632068002802D17D
:10127000FFF728FD60602069002801D1012000E00F
:101280000020002819D12046103000F07DFB0128F5
:1012900013D1FFF7C9FD10E0E760606A002801D1B3
:1012A000012000E00020002807D12046243000F073
:1012B0006BFB002801D0FFF7B7FDFFF77DFD012094
:1012C00007B0F0BD0598002803D1FFF775FD002099
:1012D000F6E70298002804D16846FFF7A5FE012032
:1012E0000290FFF769FDFFF7DDFEFFF757FD606C29
:1012F000401C002800D16064A06C401C002800D174
:10130000A064FFF759FD05A9684600F073F90028AD
:1013100023D12046FFF7AEFA002818D02068002815
:1013200006D1FFF73BFD6068FFF738FEFFF744FD8D
:10133000204624300599FFF7E9FD2046FFF721FC00
:1013400000F066FB002880D1FFF76EFD7DE72046A8
:10135000FFF717FC00F05CFB77E72046FFF711FC76
:1013600000F056FB0020ABE770B505460E462C4654
:10137000002C02D172B600BFFEE7FFF70FFD216C13
:10138000E06B48432168401860600020A06320683B
:10139000A060E06B401E216C484321684018E0606B
:1013A0000020C0436064A064002E10D12069002892
:1013B00001D1012000E00020002810D1204610308B
:1013C00000F0E2FA01280AD1FFF72EFD07E02046DF
:1013D0001030FFF7ABFC20462430FFF7A7FCFFF7E7
:1013E000EBFC012070BDFFB583B006461D46002012
:1013F00002903446002C02D172B600BFFEE704987A
:10140000002802D1206C002801D1012000E000203A
:10141000002802D172B600BFFEE7022D02D1E06BB8
:10142000012801D1012000E00020002802D172B67D
:1014300000BFFEE700F0B4F9002802D105980028AB
:1014400001D1012000E00020002802D172B600BFC7
:10145000FEE700BFFFF7A2FCA06BE16B884201D35F
:10146000022D1FD12A4620460499FFF7F3F80746BC
:10147000606A002801D1012000E00020002808D186
:101480002046243000F080FA012806D1FFF7CCFC7A
:1014900003E0002F01D0FFF7C7FCFFF78DFC012010
:1014A00007B0F0BD0598002803D1FFF785FC0020A8
:1014B000F6E70298002804D16846FFF7B5FD012041
:1014C0000290FFF779FCFFF7EDFDFFF767FC606C1A
:1014D000401C002800D16064A06C401C002800D192
:1014E000A064FFF769FC05A9684600F083F80028AE
:1014F00019D12046FFF7CCF900280ED02046103035
:101500000599FFF703FD2046FFF73BFB00F080FA4B
:1015100000289FD1FFF788FC9CE72046FFF731FBAE
:1015200000F076FA96E72046FFF72BFB00F070FA02
:101530000020B5E7FFB583B0074615461E463C467A
:10154000002C02D172B600BFFEE70498002802D139
:10155000206C002801D1012000E00020002802D1E9
:1015600072B600BFFEE7022E02D1E06B012801D166
:10157000012000E00020002802D172B600BFFEE783
:10158000FEF7B2FD0190A06BE16B884201D3022E01
:1015900027D1324620460499FFF75CF8002803D093
:1015A000002D01D001202860A06C401C002812D121
:1015B000606A002801D1012000E0002000280DD140
:1015C0002046243000F0E0F9002807D0002D05D097
:1015D0000120286002E0A06C401CA0640120029061
:1015E00001E0002002900198FEF782FD029807B00A
:1015F000F0BD000070B504460D46002C02D172B655
:1016000000BFFEE7002D02D172B600BFFEE7FFF774
:10161000C5FB134802682868401C002801D1002639
:1016200019E0104920680968884204D06068904237
:1016300001D801260FE06068101A2968884209D293
:1016400028686168511A401A28602046FFF7ECFCB0
:10165000002600E00126FFF7AFFB304670BD00001A
:101660003C00002050000020FFB583B016460C9DC2
:101670000398002802D172B600BFFEE70A2D01D2FE
:10168000012000E00020002802D172B600BFFEE772
:1016900030460E99FEF738FF0446002C62D0701ECB
:1016A0008000216B081802900298C008C0000290C8
:1016B00002984007400F002801D1012000E00020DF
:1016C000002802D172B600BFFEE700962A462046E7
:1016D0000F9B0499FFF748F8069A03990298FFF7C1
:1016E00001FB20600D98002801D00D980460FFF7E1
:1016F00055FB25480068401C2349086023480068C2
:10170000002808D1214804600846006801280DD14E
:10171000FFF754F80AE01E480068002806D11B486D
:101720000068C06AA84201D81848046019480068D7
:10173000401C184908600846006860641649E06A61
:101740000968884202D91449E06A08601422E16AF3
:101750005143124A8818211DFFF713FB0127FFF799
:101760002BFB01E00027FF43012F0AD10848006846
:10177000002806D005480068C06AA84201D2FFF7D9
:1017800053FB384607B0F0BD380000202800002089
:10179000440000205400002040000020D40D002010
:1017A00006490968002901D1012006E004490968B9
:1017B000002901D1022000E00020704744000020F1
:1017C0005C00002010B5FFF7E9FA03480468FFF752
:1017D000F3FA204610BD00003C000020F8B50020C0
:1017E000009043480068002874D142480068401CBB
:1017F0004049086008460668002E1CD13E48006833
:101800000068002801D1012000E00020002802D15A
:1018100072B600BFFEE738480768384800683649A6
:1018200008603648076036480068401C3449086044
:10183000FFF704F900BF3348006886423DD300BF7C
:101840002D4800680068002801D1012000E0002038
:10185000002804D00020C0432A4908602CE0264814
:101860000068C068C4686568AE4202D22548056059
:1018700022E0201DFFF746FAA06A002803D0204688
:101880001830FFF73FFA2049E06A0968884202D918
:101890001D49E06A08601422E16A51431B4A881816
:1018A000211DFFF76EFA1A49E06A0968C96A884281
:1018B000C6D301200090C3E700BF15480068C06A86
:1018C0001421484311490858012808D901200090E3
:1018D00005E0FFE70F480068401C0E4908600E480D
:1018E0000068002801D0012000900098F8BD000099
:1018F0005C0000203C0000202C0000203000002074
:10190000500000205800002040000020D40D00208E
:1019100028000020480000204C00002070B505463B
:101920002C460026002D29D0206D002802D172B649
:1019300000BFFEE7206D401E2065E16CE06A884232
:101940001CD0206D002819D1201DFFF7DBF9E06CB9
:10195000E0620A21E06A081AA0610949E06A0968A0
:10196000884202D90649E06A08601422E16A5143BC
:10197000044A8818211DFFF704FA0126304670BD7D
:1019800040000020D40D002070B50646F068C46801
:10199000002C02D172B600BFFEE720461830FFF7D8
:1019A000B1F915480068002813D1201DFFF7AAF9E6
:1019B0001249E06A0968884202D91049E06A086061
:1019C0001422E16A51430E4A8818211DFFF7D9F904
:1019D00004E0214618310B48FFF7D3F90A49E06AC1
:1019E0000968C96A884204D90125012007490860AD
:1019F00000E00025284670BD5C000020400000206B
:101A0000D40D0020C40E0020280000204C0000202F
:101A100070B5002531480068002802D172B600BFB9
:101A2000FEE7FFF7BBF92D480068401E2B49086010
:101A30000846006800284CD129480068002848D092
:101A400022E02848C068C46820461830FFF75AF9D9
:101A5000201DFFF757F92449E06A0968884202D936
:101A60002149E06A08601422E16A51431F4A88183C
:101A7000211DFFF786F91E49E06A0968C96A884294
:101A800002D301201B49086016480068002801D1D4
:101A9000012000E000200028D3D01748006800286B
:101AA00010D00BE0FFF79AFE002802D00120114968
:101AB000086011480068401E0F4908600E48006821
:101AC0000028EFD10B480068012802D10125FFF75B
:101AD000ABF9FFF771F9284670BD00005C000020EB
:101AE00038000020C40E002040000020D40D00204B
:101AF000280000204C000020480000201FB50024D2
:101B0000FEF722FD0C48006800280CD000200223BC
:101B100001900290009303900346502207A10948C8
:101B2000FFF7A2FD0446002C02D172B600BFFEE70B
:101B3000204604B010BD000020000020546D72202B
:101B400053766300690B0008F0B585B005460C4676
:101B500016461F460020039014480068002822D033
:101B6000009401960295062C15DAFFF719FE02285B
:101B700008D1002369460D480A9A0068FFF733FC34
:101B8000039010E000231A46694608480068FFF7F2
:101B90002AFC039007E000233A46694603480068A0
:101BA000FFF7C8FC0390039805B0F0BD20000020AB
:101BB000D01B000800000020640000005C04000846
:101BC000341C000864000020DC1200006C040008D3
:101BD0000000000000000000000000000000000005
:101BE000400D0000000000000000000000000000A8
:101BF00000000000000000000000000000000000E5
:101C000000000000000000000000000000000000D4
:101C100000000000000000000000000000000000C4
:101C20000000000000000000FFFFFFFF00000000B8
:041C3000AAAAAAAA08
:04000005080000B53A
:00000001FF
