:020000040800F2
:10000000E012002039010008BF020008BB0200080E
:1000100000000000000000000000000000000000E0
:10002000000000000000000000000000E1020008E5
:100030000000000000000000F7000008B503000801
:100040004B010008000000004B0100084B010008B4
:100050004B0100084B0100084B0100084B01000850
:10006000000000004B0100084B0100084B01000894
:100070004B0100084B0100084B0100080000000084
:100080004B01000800000000000000004B010008C8
:100090004B0100084B0100084B0100084B01000810
:1000A0004B0100084B0100084B01000865040008E3
:1000B000670400080348854600F074F800480047CC
:1000C00089040008E0120020064B196808682030F7
:1000D00080F30988022080F314883FBCAE4662B6E4
:1000E00000BD000018000020EFF3108072B67047CA
:1000F00080F310887047EFF309800E4B1A682038A0
:100100001060F0C044464D4656465F46F0C008B504
:1001100072B600F087FC62B60CBC1168086810303B
:10012000F0C8A046A946B246BB4680F309882038ED
:10013000F0C81847180000200448804704480047CA
:10014000FEE7FEE7FEE7FEE7FEE7FEE7D90300086D
:10015000B500000830B50B460146002020220124DE
:1001600009E00D46D5409D4205D31D469540491BEB
:100170002546954040191546521E002DF1DC30BD34
:10018000D2B201E00270401C491EFBD2704700222F
:10019000F6E710B513460A4604461946FFF7F0FF86
:1001A000204610BD064C0125064E05E0E36807CC4D
:1001B0002B430C3C98471034B442F7D3FFF77EFF33
:1001C0004C0E00086C0E000811E020210920C0062A
:1001D00000F071F8FF20F53000F0C6FB0021092087
:1001E000C00600F068F87D20000100F0BDFBECE7E0
:1001F0001CB50121480400F063F820200090012183
:1002000068460171002181710121C1710021417194
:1002100069460920C00600F006F800210920C00642
:1002200000F049F81CBDF0B50A4600210023002467
:1002300000BF3DE001258D402B4615681D402C4632
:100240009C4234D11579012D02D01579022D16D199
:1002500085684F000326BE40B543856055794E0042
:10026000B540866835438560858801268E40B54354
:100270008580858896798E40B6B23543858005683D
:100280004F000326BE40B543056015794E00B540CA
:10029000066835430560C5684F000326BE40B54378
:1002A000C560D5794E00B540C6683543C560491C68
:1002B0001029BFD3F0BD8182704700BFFEE77047B1
:1002C000002905D0054A52690243044B5A6104E0F3
:1002D000024A52698243014B5A6170470010024042
:1002E000704700000CB50020019000902F48006876
:1002F000012108432D49086000BF2C4800680221F5
:10030000084000900198401C01900098002804D1FA
:100310000521090301988842EFD124480068022191
:100320000840002802D00120009001E00020009049
:100330000098012839D111201D4908601B484068E8
:100340001A494860084640684860084640687F216E
:10035000C903884315494860084640685121C903CC
:10036000084312494860084600680121090608430D
:100370000E49086000BF0D48006801214906084089
:100380000028F8D009484068800880000749486084
:1003900008464068022108430449486000BF0348FA
:1003A00040680C2108400828F9D10CBD001002401B
:1003B0000020024010B5FFF797FE044600F030FC25
:1003C000002803D001200007024948602046FFF7BB
:1003D0008FFE10BD00ED00E010B51D480068012142
:1003E00008431B490860084640681A4908401849F4
:1003F00048600846006818490840154908600846E2
:100400000068012189048843114908600846406852
:100410003F21090488430E4948600846C06A000924
:100420000001C8620846006BFF2154318843084927
:1004300008630846406B400840004863002088601D
:10044000064800680649884201D1FFF74BFF10BDFE
:10045000001002400CB8FF08FFFFF6FE5400002019
:10046000006CDC027047704702E008C8121F08C128
:10047000002AFAD170477047002001E001C1121F25
:10048000002AFBD1704700001FB5FFF7B1FE002026
:10049000022301900290009303900346642204A17A
:1004A000064800F021FB00F08BFA00BFFEE70000D9
:1004B000446973706C61793100000000C901000863
:1004C00010B504460E48006844600E480068844237
:1004D00007D20B480168091D0B48006800F0CCF9F1
:1004E0000CE007480168091D0848006800F0C4F9DD
:1004F00007480068844201D20548046010BD00002E
:10050000180000202C000020200000201C000020EB
:100510004800002070B505460E46542000F01CF936
:100520000446002C14D0002E03D1A80000F014F9CA
:1005300000E030462063206B002804D1204600F004
:10054000E5F9002404E0A900A522206BFFF718FEBE
:10055000204670BD70B525E000F05CFA14480068D4
:10056000002801D1012000E00020054600F0F8FB42
:10057000002D17D100F0A8F90D48C068C468201DEF
:1005800000F056F90B480068401E0A4908600A4806
:100590000068401E0849086000F0A4F9204600F0F9
:1005A0000DF800BF044800680028D5D170BD0000D8
:1005B000B40E0020280000202400002010B50446BE
:1005C000206B00F0A3F9204600F0A0F910BD000058
:1005D0000A4AD008C0000A4A10600022084B5A603C
:1005E00035229201074B5A6000221A6001463522DB
:1005F00092014A601A460A607047000070000020AD
:10060000000000200800002000BFFFF7A3FF034800
:1006100000680128F9D900F09BF9F6E7B00D002039
:10062000F8B504460F461546002608E0B95D204699
:1006300034308155B85D002800D102E0761C102EC0
:10064000F4D300BF0021432001550A2D00D3092512
:10065000E562E56400202065201D00F00AF92046CF
:10066000183000F006F924610A20401BA061646282
:10067000F8BD000010B5002406E0142161430E4AC5
:10068000881800F0E9F8641C0A2CF6D30B4800F037
:10069000E3F80B4800F0E0F80A4800F0DDF80A48FB
:1006A00000F0DAF8094800F0D7F804480849086073
:1006B00003480849086010BDB00D0020780E0020E6
:1006C0008C0E0020A00E0020B40E0020C80E0020CA
:1006D0001C000020200000200B490968096800293F
:1006E00001D1012100E00021002904D00021C943EB
:1006F000064A116006E004490968C968C868034AE7
:1007000041681160704700001C0000204800002074
:1007100010B57D21C90005480068FFF71BFD401E8C
:10072000034948610720086110BD00005400002003
:1007300000E000E007480068401C002801D10120CB
:1007400000E00020002802D172B600BFFEE772B6BA
:1007500000BFFEE750000020F8B5044600200090DE
:1007600000F058F926480068002804D1FFF730FF50
:10077000012023490860002C09D008346007400F8D
:10078000002804D06007400F0821081A0419002C23
:1007900032D03520800184422ED21A4F3846056867
:1007A00001E02F462D686868A04202D22868002820
:1007B000F7D1154885421FD0386808300090286866
:1007C00038606868001B102810D92E196868001B53
:1007D00070606C6071680B4800E0006802685268E5
:1007E0008A42FAD302683260066000BF074968682F
:1007F0000968081A0549086000F0B2FA0098F8BDC7
:10080000140000200000002008000020100000203C
:10081000001F01231B060360001F0160001F034B24
:100820000360143802602038704700003507000864
:1008300001460A694B68886898608B684868586008
:100840005068884201D188685060002008611068B3
:10085000401E106010687047014608314160002159
:10086000C943816001460831C16001610021016016
:10087000704700210161704710B502460B685C1C8F
:10088000002C01D1106907E01046083000E04068F4
:10089000446824689C42FAD944684C604C68A16062
:1008A000886041600A611468641C146010BD42686D
:1008B0004A6093688B60936859609160086103682F
:1008C0005B1C03607047000072B605480068401C5E
:1008D00003490860BFF34F8FBFF36F8F704700006D
:1008E0005000002008480068002802D172B600BFFE
:1008F000FEE705480068401E034908600846006896
:10090000002800D162B670475000002070B506463E
:100910003546002E16D0083D2C4600F07BF8616865
:10092000094800E00068026852688A42FAD3026807
:10093000226004600549606809684018034908603E
:1009400000F00EFA70BD0000000000201000002032
:100950000120000703494860BFF34F8FBFF36F8F3B
:100960007047000000ED00E070B504460026002C42
:100970001BD010480068002801D1012000E00020B1
:10098000002802D172B600BFFEE700F043F80A4823
:100990000068051909480068001DFFF749FF28464F
:1009A000FFF78EFD00F0DCF90646002E01D1FFF7BF
:1009B000CFFF70BD4C0000202C000020180000204C
:1009C0001FB5002000900190029003463C220CA12C
:1009D00003900D4800F088F80446012C09D172B646
:1009E00001200A49086000200949086000F060F809
:1009F00004E0002C02D172B600BFFEE71FBD00006C
:100A000049444C450000000009060008340000205D
:100A10002C00002002480068401C01490860704713
:100A20004C0000201D480068002803D001201C490C
:100A3000086032E000201A4908600BE0194800689D
:100A4000002802D172B600BFFEE716480068401EBB
:100A50001449086013480068142148431249085893
:100A6000002801D1012000E000200028E6D10D4936
:100A70000968142251430C4A88184168496841604A
:100A80000146083142688A4202D1416849684160A2
:100A90004168C968054A116000BF70474C000020DA
:100AA0003C00002030000020B00D00201800002085
:100AB00010B50B48006AFF21090408430849086281
:100AC0000846006AFF210906084305490862FFF746
:100AD0001FFE002003490860FFF7F6FA002010BD52
:100AE00000ED00E050000020FFB583B016460C9DDD
:100AF0000398002802D172B600BFFEE70A2D01D28A
:100B0000012000E00020002802D172B600BFFEE7FD
:100B100030460E99FFF7FEFC0446002C62D0701E92
:100B20008000216B081802900298C008C000029053
:100B300002984007400F002801D1012000E000206A
:100B4000002802D172B600BFFEE700962A46204672
:100B50000F9B0499FFF764FD069A03990298FFF72B
:100B600057FE20600D98002801D00D980460FFF713
:100B7000ABFE25480068401C2349086023480068F4
:100B8000002808D1214804600846006801280DD1DA
:100B9000FFF770FD0AE01E480068002806D11B48D8
:100BA0000068C06AA84201D8184804601948006863
:100BB000401C184908600846006860641649E06AED
:100BC0000968884202D91449E06A08601422E16A7F
:100BD0005143124A8818211DFFF769FE0127FFF7CC
:100BE00081FE01E00027FF43012F0AD10848006879
:100BF000002806D005480068C06AA84201D2FFF765
:100C0000A7FE384607B0F0BD2800002018000020DD
:100C1000340000204400002030000020B00D0020EF
:100C2000F8B50020009043480068002874D142487D
:100C30000068401C4049086008460668002E1CD128
:100C40003E4800680068002801D1012000E0002033
:100C5000002802D172B600BFFEE73848076838485E
:100C60000068364908603648076036480068401C0E
:100C700034490860FFF730FD00BF33480068864202
:100C80003DD300BF2D4800680068002801D1012035
:100C900000E00020002804D00020C0432A4908605A
:100CA0002CE026480068C068C4686568AE4202D27D
:100CB0002548056022E0201DFFF7BAFDA06A002844
:100CC00003D020461830FFF7B3FD2049E06A0968D9
:100CD000884202D91D49E06A08601422E16A514342
:100CE0001B4A8818211DFFF7E2FD1A49E06A0968CE
:100CF000C96A8842C6D301200090C3E700BF1548E7
:100D00000068C06A1421484311490858012808D9CD
:100D10000120009005E0FFE70F480068401C0E49E5
:100D200008600E480068002801D00120009000985B
:100D3000F8BD00004C0000202C0000201C0000200A
:100D4000200000204000002048000020300000204B
:100D5000B00D002018000020380000203C000020CA
:100D600070B5002531480068002802D172B600BF76
:100D7000FEE7FFF7A9FD2D480068401E2B490860DB
:100D80000846006800284CD129480068002848D04F
:100D900022E02848C068C46820461830FFF748FDA4
:100DA000201DFFF745FD2449E06A0968884202D901
:100DB0002149E06A08601422E16A51431F4A8818F9
:100DC000211DFFF774FD1E49E06A0968C96A88425F
:100DD00002D301201B49086016480068002801D191
:100DE000012000E000200028D3D017480068002828
:100DF00010D00BE0FFF714FF002802D001201149AA
:100E0000086011480068401E0F4908600E480068DD
:100E10000028EFD10B480068012802D10125FFF717
:100E200097FDFFF75FFD284670BD00004C000020D5
:100E300028000020A00E002030000020B00D00206F
:100E4000180000203C000020380000206C0E000834
:100E5000000000206800000068040008D40E0008AC
:100E600068000020781200007804000800000000EC
:100E7000000000000000000000000000400D000025
:100E80000000000000000000000000000000000062
:100E90000000000000000000000000000000000052
:100EA0000000000000000000000000000000000042
:100EB00000000000FFFFFFFF00000000AAAAAAAA8E
:100EC00000127A000000000000000000010203048C
:040ED0000607080900
:04000005080000B53A
:00000001FF
